{
  "_format": "hh3-artifact-1",
  "contractName": "PYUSDSubscription",
  "sourceName": "contracts/PYUSDSubscription.sol",
  "abi": [
    {
      "inputs": [
        {
          "internalType": "address",
          "name": "_pyusdAddress",
          "type": "address"
        },
        {
          "internalType": "uint256",
          "name": "_fee",
          "type": "uint256"
        },
        {
          "internalType": "uint256",
          "name": "_period",
          "type": "uint256"
        },
        {
          "internalType": "address",
          "name": "_initialOwner",
          "type": "address"
        }
      ],
      "stateMutability": "nonpayable",
      "type": "constructor"
    },
    {
      "inputs": [
        {
          "internalType": "address",
          "name": "owner",
          "type": "address"
        }
      ],
      "name": "OwnableInvalidOwner",
      "type": "error"
    },
    {
      "inputs": [
        {
          "internalType": "address",
          "name": "account",
          "type": "address"
        }
      ],
      "name": "OwnableUnauthorizedAccount",
      "type": "error"
    },
    {
      "anonymous": false,
      "inputs": [
        {
          "indexed": true,
          "internalType": "address",
          "name": "previousOwner",
          "type": "address"
        },
        {
          "indexed": true,
          "internalType": "address",
          "name": "newOwner",
          "type": "address"
        }
      ],
      "name": "OwnershipTransferred",
      "type": "event"
    },
    {
      "anonymous": false,
      "inputs": [
        {
          "indexed": true,
          "internalType": "address",
          "name": "user",
          "type": "address"
        },
        {
          "indexed": false,
          "internalType": "uint256",
          "name": "expiresAt",
          "type": "uint256"
        }
      ],
      "name": "SubscriptionUpdated",
      "type": "event"
    },
    {
      "inputs": [
        {
          "internalType": "address",
          "name": "_subscriber",
          "type": "address"
        }
      ],
      "name": "isSubscriberActive",
      "outputs": [
        {
          "internalType": "bool",
          "name": "",
          "type": "bool"
        }
      ],
      "stateMutability": "view",
      "type": "function"
    },
    {
      "inputs": [],
      "name": "owner",
      "outputs": [
        {
          "internalType": "address",
          "name": "",
          "type": "address"
        }
      ],
      "stateMutability": "view",
      "type": "function"
    },
    {
      "inputs": [],
      "name": "pyusdToken",
      "outputs": [
        {
          "internalType": "contract IERC20",
          "name": "",
          "type": "address"
        }
      ],
      "stateMutability": "view",
      "type": "function"
    },
    {
      "inputs": [],
      "name": "renounceOwnership",
      "outputs": [],
      "stateMutability": "nonpayable",
      "type": "function"
    },
    {
      "inputs": [],
      "name": "subscribe",
      "outputs": [],
      "stateMutability": "nonpayable",
      "type": "function"
    },
    {
      "inputs": [
        {
          "internalType": "address",
          "name": "",
          "type": "address"
        }
      ],
      "name": "subscriberExpiresAt",
      "outputs": [
        {
          "internalType": "uint256",
          "name": "",
          "type": "uint256"
        }
      ],
      "stateMutability": "view",
      "type": "function"
    },
    {
      "inputs": [],
      "name": "subscriptionFee",
      "outputs": [
        {
          "internalType": "uint256",
          "name": "",
          "type": "uint256"
        }
      ],
      "stateMutability": "view",
      "type": "function"
    },
    {
      "inputs": [],
      "name": "subscriptionPeriod",
      "outputs": [
        {
          "internalType": "uint256",
          "name": "",
          "type": "uint256"
        }
      ],
      "stateMutability": "view",
      "type": "function"
    },
    {
      "inputs": [
        {
          "internalType": "address",
          "name": "newOwner",
          "type": "address"
        }
      ],
      "name": "transferOwnership",
      "outputs": [],
      "stateMutability": "nonpayable",
      "type": "function"
    }
  ],
  "bytecode": "0x60e060405234801561000f575f5ffd5b5060405161089d38038061089d83398101604081905261002e916101df565b806001600160a01b03811661005d57604051631e4fbdf760e01b81525f60048201526024015b60405180910390fd5b61006681610175565b506001600160a01b0384166100bd5760405162461bcd60e51b815260206004820152601960248201527f505955534420616472657369207369666972206f6c616d617a000000000000006044820152606401610054565b5f831161010c5760405162461bcd60e51b815260206004820152601b60248201527f556372657420736966697264616e20627579756b206f6c6d616c6900000000006044820152606401610054565b5f821161015b5760405162461bcd60e51b815260206004820152601a60248201527f5375726520736966697264616e20627579756b206f6c6d616c690000000000006044820152606401610054565b506001600160a01b0390921660805260a05260c052610223565b5f80546001600160a01b038381166001600160a01b0319831681178455604051919092169283917f8be0079c531659141344cd1fd0a4f28419497f9722a3daafe3b4186f6b6457e09190a35050565b80516001600160a01b03811681146101da575f5ffd5b919050565b5f5f5f5f608085870312156101f2575f5ffd5b6101fb856101c4565b6020860151604087015191955093509150610218606086016101c4565b905092959194509250565b60805160a05160c0516106286102755f395f818160d3015281816103fe015261042f01525f818160990152818161026601526102f501525f8181610130015281816101f1015261031d01526106285ff3fe608060405234801561000f575f5ffd5b5060043610610090575f3560e01c80638f449a05116100635780638f449a0514610123578063917630091461012b578063b1279c7314610152578063d4e55f401461018c578063f2fde38b146101ab575f5ffd5b80630aa0a175146100945780630ca2822c146100ce578063715018a6146100f55780638da5cb5b146100ff575b5f5ffd5b6100bb7f000000000000000000000000000000000000000000000000000000000000000081565b6040519081526020015b60405180910390f35b6100bb7f000000000000000000000000000000000000000000000000000000000000000081565b6100fd6101be565b005b5f546001600160a01b03165b6040516001600160a01b0390911681526020016100c5565b6100fd6101d1565b61010b7f000000000000000000000000000000000000000000000000000000000000000081565b61017c61016036600461056a565b6001600160a01b03165f90815260016020526040902054421090565b60405190151581526020016100c5565b6100bb61019a36600461056a565b60016020525f908152604090205481565b6100fd6101b936600461056a565b6104b2565b6101c66104ef565b6101cf5f61051b565b565b604051636eb1769f60e11b81523360048201819052306024830152905f907f00000000000000000000000000000000000000000000000000000000000000006001600160a01b03169063dd62ed3e90604401602060405180830381865afa15801561023e573d5f5f3e3d5ffd5b505050506040513d601f19601f820116820180604052508101906102629190610597565b90507f00000000000000000000000000000000000000000000000000000000000000008110156102d05760405162461bcd60e51b8152602060048201526014602482015273282caaa9a21037b730bcb4903cb2ba32b939b4bd60611b60448201526064015b60405180910390fd5b6040516323b872dd60e01b81526001600160a01b0383811660048301523060248301527f000000000000000000000000000000000000000000000000000000000000000060448301525f917f0000000000000000000000000000000000000000000000000000000000000000909116906323b872dd906064016020604051808303815f875af1158015610365573d5f5f3e3d5ffd5b505050506040513d601f19601f8201168201806040525081019061038991906105ae565b9050806103d85760405162461bcd60e51b815260206004820152601960248201527f5059555344207472616e73666572692062617361726973697a0000000000000060448201526064016102c7565b6001600160a01b0383165f90815260016020526040812054904282111561042a576104237f0000000000000000000000000000000000000000000000000000000000000000836105cd565b9050610457565b6104547f0000000000000000000000000000000000000000000000000000000000000000426105cd565b90505b6001600160a01b0385165f8181526001602052604090819020839055517fa739b38899b4a928ed52e053d6cad069a2f5e76ebeea63aa310f9595e28c5f20906104a39084815260200190565b60405180910390a25050505050565b6104ba6104ef565b6001600160a01b0381166104e357604051631e4fbdf760e01b81525f60048201526024016102c7565b6104ec8161051b565b50565b5f546001600160a01b031633146101cf5760405163118cdaa760e01b81523360048201526024016102c7565b5f80546001600160a01b038381166001600160a01b0319831681178455604051919092169283917f8be0079c531659141344cd1fd0a4f28419497f9722a3daafe3b4186f6b6457e09190a35050565b5f6020828403121561057a575f5ffd5b81356001600160a01b0381168114610590575f5ffd5b9392505050565b5f602082840312156105a7575f5ffd5b5051919050565b5f602082840312156105be575f5ffd5b81518015158114610590575f5ffd5b808201808211156105ec57634e487b7160e01b5f52601160045260245ffd5b9291505056fea2646970667358221220136c2692c2394edb6cc07f8f057c0d3e427e00d8cfaaf35c58ae3967b057646764736f6c634300081c0033",
  "linkReferences": {},
  "deployedLinkReferences": {},
  "immutableReferences": {
    "265": [
      {
        "length": 32,
        "start": 304
      },
      {
        "length": 32,
        "start": 497
      },
      {
        "length": 32,
        "start": 797
      }
    ],
    "267": [
      {
        "length": 32,
        "start": 153
      },
      {
        "length": 32,
        "start": 614
      },
      {
        "length": 32,
        "start": 757
      }
    ],
    "269": [
      {
        "length": 32,
        "start": 211
      },
      {
        "length": 32,
        "start": 1022
      },
      {
        "length": 32,
        "start": 1071
      }
    ]
  },
  "inputSourceName": "project/contracts/PYUSDSubscription.sol",
  "buildInfoId": "solc-0_8_28-3125e1868ce2bdea85a3c38f7537a923b34a398c"
}